:020000040800F2
:10000000F00400200D0200084F1B0008E91800084A
:100010004D1B0008930700085D2100080000000048
:10002000000000000000000000000000DD1B0008D0
:10003000D107000800000000611B0008DF1B00085A
:1000400027020008270200082702000827020008EC
:1000500027020008270200082702000827020008DC
:1000600027020008270200082702000827020008CC
:1000700027020008270200082702000827020008BC
:1000800027020008270200082702000827020008AC
:10009000270200082702000827020008270200089C
:1000A000270200082702000827020008270200088C
:1000B000270200082702000827020008270200087C
:1000C000270200082702000827020008270200086C
:1000D000270200082702000827020008270200085C
:1000E000270200082702000827020008270200084C
:1000F000270200082702000827020008270200083C
:10010000270200082702000827020008270200082B
:10011000270200082702000827020008270200081B
:10012000270200082702000827020008270200080B
:1001300027020008270200082702000827020008FB
:1001400027020008270200082702000827020008EB
:1001500027020008270200082702000827020008DB
:1001600027020008270200082702000827020008CB
:1001700027020008270200082702000800000000EC
:1001800027020008270200082702000827020008AB
:10019000270200082702000827020008270200089B
:1001A000270200082702000827020008270200088B
:1001B000270200082702000827020008270200087B
:1001C000270200082702000800000000270200089C
:1001D000270200082702000827020008270200085B
:1001E000270200082702000827020008270200084B
:1001F0002702000827020008DFF80CD000F048FAB8
:1002000000480047D52A0008F0040020064880472F
:1002100006480047FEE7FEE7FEE7FEE7FEE7FEE7EB
:10022000FEE7FEE7FEE7FEE7851C0008F90100088F
:100230002DE9F05F0546002092469B46884606461B
:10024000814640241BE0284641464746224600F0AE
:1002500057F853465A46C01A914110D311461846D2
:10026000224600F03EF82D1A67EB01084F46224661
:100270000120002100F035F817EB00094E41201E47
:10028000A4F10104DFDC484631462A464346BDE876
:10029000F09FD2B201E000F8012B491EFBD270475B
:1002A0000022F6E710B513460A4604461946FFF742
:1002B000F0FF204610BD30B50B460146002020223D
:1002C000012409E021FA02F59D4205D303FA02F563
:1002D000491B04FA02F52844151EA2F10102F1DCC3
:1002E00030BD202A04DB203A00FA02F100207047DA
:1002F0009140C2F1200320FA03F319439040704764
:10030000202A04DB203A21FA02F00021704721FA6A
:1003100002F3D040C2F120029140084319467047D1
:100320002DE9FE4F804681EA0300C00F0C46009085
:1003300021F0004123F00045B8EB0200A94105D2AD
:100340004046214690461C460B46024623F000409C
:10035000104347D0270DC7F30A00C3F30A51029098
:10036000401A019040286BDAC3F3130040F4801B5D
:100370000098924620B10023D2EB030A63EB0B0BEB
:1003800001985946C0F140025046FFF7AAFF0646C1
:100390000D4650465946019A00F08CF910EB0800C2
:1003A0006141002487EA115284EAE7731A4340D07E
:1003B000009A62B3019A012A4FEA075215DC001B2A
:1003C00061EB02014FF0004202EA0752CDE9004220
:1003D000001C41F5801132462B4600F08CF903B029
:1003E000BDE8F08F40462146F9E7001B61EB0201B2
:1003F000001C41F5801300185B412018A2F500177E
:1004000047EB030140EAD570B6196D4111E06D0864
:100410004FEA360645EAC0754FEA0752001B61EB0A
:100420000201001C41F5801149084FEA3000001913
:10043000514132462B4603B0BDE8F04F00F04CB9B5
:100440000098012240000023D0EB020263EBE0732E
:10045000009821464FEAE074B8EB000061EB04011C
:10046000E9E783F000435BE781F0004158E72DE9BD
:10047000FE4F81EA030404F0004421F0004100949F
:100480004FF0000B23F0004350EA01045ED052EA23
:1004900003045BD0C3F30A54C1F30A552C44A4F2FD
:1004A000F3340194A0FB0254C1F3130141F4801111
:1004B000C3F3130343F4801301FB024400FB034E18
:1004C000840A970A44EA815447EA8357A4FB0768E1
:1004D00002958D0A05FB07854FEA932C04FB0C540B
:1004E0002705029D4FEA065847EA1637B5EB08057F
:1004F0006EEB070C870E920E47EA811742EA8312D1
:10050000A7FB0201B6EB0B0164EB00042B0D43EAE1
:100510000C335E1844EB1C50DA465146E7FB0201EF
:10052000C5F313044FEA0B3343EA14534FEA043282
:10053000019C43EA0603A4F10C040294009CCDE95B
:1005400000B400F0D8F803B0BDE8F08F00200146F9
:10055000F9E72DE9F04D81EA030404F0004B21F0A6
:10056000004514464FF0000A23F0004150EA05020E
:1005700020D054EA01021DD0C5F30A570246C5F344
:100580001303C1F31300C1F30A5640F4801543F47A
:100590008013A7EB0608101BD64608F2FD3873EB54
:1005A000050002D308F1010801E092185B41B8F19F
:1005B000000F03DA00200146BDE8F08D00204FF463
:1005C0008011064684460EE0171B73EB050705D322
:1005D000121B63EB050306434CEA010C49084FEA82
:1005E000300092185B4150EA0107EDD152EA030056
:1005F00012D082EA040083EA0501084305D0101BEB
:10060000AB4106D20122002306E000224FF0004356
:1006100002E06FF0010253101AEB06004CEB085198
:1006200010EB0A0041EB0B01BDE8F04D00F054B8AF
:10063000C1F30A52C1F3130140F2FF3341F48011B8
:100640009A4202DA00200146704740F233439A4250
:10065000A2F2334202DC5242FFF752BEFFF741BE24
:1006600030B5041E71F1000404DB4FF00044404239
:1006700064EB0101141E73F1000405DB1C464FF00E
:100680000043524263EB0403994208BF904230BDDD
:10069000064C074D06E0E06840F0010394E80700CF
:1006A00098471034AC42F6D3FFF7AAFD702C00082F
:1006B000902C0008202A06DBCB17203A41FA02F0E2
:1006C00043EAE07306E041FA02F3D040C2F12002AF
:1006D000914008431946704710B5141E73F1000489
:1006E00008DA401C41F1000192185B411A4301D124
:1006F00020F0010010BD2DE9F04D92469B4611B14E
:10070000B1FA81F202E0B0FA80F220329046FFF7AF
:10071000E8FD04460F4640EA0A0041EA0B01534651
:100720005A46084313D0114653EA010019D0C8F1C4
:1007300040025046FFF7E4FD05460E465046594636
:100740004246FFF7CEFD084305D0012004E02046D5
:100750003946BDE8F08D0020054346EAE0762C439B
:1007600037430A986305E40AA0EB08000022FD0A5B
:1007700044EA47540A3002D500200146E9E7010562
:1007800010196941DDE9084500196941BDE8F04DDE
:10079000A2E7FEE770B5044601F0E4F9207001F02D
:1007A000E1F9607001F0DEF9A07001F0DBF9E070B2
:1007B00001F0D8F921786278A378E57811442071A6
:1007C0005A191144814201D1012070BD002070BD31
:1007D0007047704770B5044600F004F90546601C88
:1007E00002D004480078044400F0FCF8401BA0420A
:1007F000FAD370BD080000202DE9F84F00224FF019
:1008000001094FF0030A4FF00F0E00BF0B6809FA01
:1008100002F42340A34270D14D68012D05D0022D72
:1008200003D0112D01D0122D11D185685700CE684B
:100830000AFA07FC25EA0C05BE402E43866045688F
:100840000E79A543C6F3001696402E434660C56850
:1008500056008F680AFA06F4A543B7402F43C760D5
:100860004D68022D01D0122D12D1D5080F694FEA23
:10087000427C00EB8505AB462D6A4FEADC6C0EFA34
:100880000CF807FA0CF725EA08052F43CBF820707F
:100890000D79076805F00305A743B5403D430560A2
:1008A0004C68E40074D53D4C256845F480452560CE
:1008B000246822F00307960704F480440094384C1F
:1008C000360F2744D7F80848DFF8D8C00EFA06F5E7
:1008D000604524EA050401D100252EE0324DA842EE
:1008E00001D1012529E0314DA84201D1022524E0A2
:1008F0002F4DA84202D103251FE049E02D4DA8420B
:1009000001D1042519E02C4DA84201D1052514E0A0
:100910002A4DA84201D106250FE0294DA84201D158
:1009200007250AE0274DA84201D1082505E0264DFC
:10093000A84201D1092500E00A25B540234E2543F0
:10094000C7F808584D683468ED0324EA030400D55D
:100950001C431E4D34602D1D4E682C68B60324EADE
:10096000030400D51C43194E2C6008364D683468CA
:10097000ED0224EA030400D51C43144D34600C3509
:100980004E682C68B60224EA030400D51C432C6090
:10099000521C102AFFF43AAFBDE8F88F44380240E9
:1009A0000030014000000240000402400008024004
:1009B000000C0240001002400014024000180240E7
:1009C000001C02400020024000240240003C014084
:1009D0000069084000D0012070470AB1816170476A
:1009E0000904FBE701488068704700000800002008
:1009F0000248816802781144816070470800002035
:100A0000032010B500F060F8002000F005F800F0B9
:100A100023F8002010BD000070B50D4D04464FF4C2
:100A20007A700C4A29781268B0FBF1F0B2FBF0F052
:100A300000F0ECFD48B9102C07D200222146501ED0
:100A400000F022F800206C6070BD012070BD000035
:100A500008000020140000200A4808B5016841F091
:100A600080510160006800F0805000900548001D32
:100A7000016841F480410160006800F4804000900A
:100A800008BD0000403802400E4BF0B41B680D4614
:100A9000C3F30223C3F10706042E00D90426191D4F
:100AA000072901D2002300E0DB1E012404FA06F12D
:100AB0009C40491E2940641E994014402143F0BCCB
:100AC00001F05EBB0CED00E0064900F0070210B536
:100AD0004FF6FF040868044B204040EA0220184308
:100AE000086010BD0CED00E00000FA051848F8B5EC
:100AF000016841F0805101600068164C00F08050A0
:100B00000090206840F480302060FFF76BFF4FF4C6
:100B10007A76054605E000BFFFF764FF401BB04250
:100B20000FD86068C003F7D5206840F4003020601B
:100B3000FFF758FF054606E0FFF754FF401BB042A1
:100B400001D90320F8BD60688003F5D50020F8BD09
:100B500040380240007000400248016841F4807152
:100B600001607047007000402DE9F84F044600789E
:100B7000DFF824944FF000063746C0070ED0D9F8AE
:100B8000001021F40001C9F80010D9F80010626BC0
:100B90001143C9F80010606B00B90126FE4D2068B2
:100BA000843500030ED5E16B286820F4401008431B
:100BB0002860E06BB0F5801F01D010B102E0012683
:100BC00000E0012720684FF4800BC0020CD5216C97
:100BD000286820F4400008432860206C584501D163
:100BE000012601E000B901272068C10100D50126D6
:100BF000800666D5E8483830016841F080510160D0
:100C00000068DFF898A300F080500090DAF8001038
:100C100041F48071CAF80010FFF7E4FE804605E059
:100C2000FFF7E0FEA0EB080064287DD8DAF80000AA
:100C3000C005F5D5DFF8608308F16808D8F8000032
:100C400010F440702AD0218E01F44071814225D0E9
:100C5000D8F80010D8F8002021F4407142F4803216
:100C6000C8F80020D8F8002022F48032C8F800200C
:100C7000C8F80010D8F80000C0070FD0FFF7B2FE88
:100C8000824607E0FFF7AEFEA0EB0A0141F2883092
:100C90008142CAD8D8F800008007F3D5206BC0F392
:100CA000012103297ED0D9F8001021F4F811C9F8E8
:100CB0000010228ED8F80010C2F30B021143C8F8BE
:100CC00000102078C00607D5286820F080702860C2
:100CD0002868A16B084328602188AF488830490400
:100CE00005D5626E016821F440311143016021880D
:100CF000090405D5A26E016821F440211143016069
:100D00002168C90305D5E26E016821F44011114341
:100D100001602168890305D5226F016821F4400133
:100D200011430160217800E034E1490605D5626C89
:100D3000016821F00301114301602178090605D5FE
:100D4000A26C016821F00C01114301602188C905E2
:100D500005D5E26C016821F0300111430160218862
:100D6000890505D5226D016821F0C001114301609C
:100D70002188490505D5626D016821F44071114350
:100D800001602188090505D5A26D016821F4406143
:100D9000114301602188C90407D5E26D016821F47F
:100DA000405100E068E0114301602188890405D5C5
:100DB000226E016821F4404111430160216849021B
:100DC00005D5A26F016821F080611143016021689F
:100DD0004FF0006A890209D5E26F016821F00061D5
:100DE00011430160E16F514500D1012721680A07D5
:100DF00000D50127490305D5626F016821F04071D4
:100E0000114301602168090206D5D4F880200168E9
:100E100021F08051114301602168490106D5D4F8C1
:100E20008420016821F00051114301602068000115
:100E300006D5D4F88810286820F000700843286090
:100E40002068C00006D5D4F88C10286820F0806097
:100E500008432860DFF84891012E02D02068800105
:100E60007ED5D9F800004E4620F08060C9F8000019
:100E7000FFF7B8FD80460FE04A4AD9F8003010402D
:100E800023F4F8120243C9F8002012E7FFF7AAFD85
:100E9000A0EB080064287DD830680001F6D42178E2
:100EA0003D487C30C90712D0616B81B9237A6268F2
:100EB0000168D0F800C09201C1F3014142EA014249
:100EC000CCF3036142EA016141EA037101602168E8
:100ED0000A0303D5E26BB2F5801F04D0C9021AD50C
:100EE000216C594517D16368016894F80CC00268F9
:100EF0009B01C1F3014143EA0141C2F3027241EA9D
:100F00000C6141EA027101602968626A21F01F01E7
:100F1000521E114329602168C90110D5238A6268D5
:100F20000168D0F800C09201C1F3036142EA0342B4
:100F300042EA0162CCF3027142EA01710160216868
:100F400089010CD56168228A237B94F808C0890145
:100F500041EA024141EA036141EA0C71016000E0AB
:100F600011E03168B04641F080613160FFF73AFD31
:100F7000064604E0FFF736FD801B64280AD8D8F83F
:100F800000000001F6D5E7B3D9F800004E4620F086
:100F9000805009E07BE0000008380240007000400B
:100FA00000380240FFFCFF0FC9F80000FFF71AFDF0
:100FB000074604E0FFF716FDC01B642867D83068B9
:100FC000C0438000F6D5216835480A0301D5E26B9D
:100FD0001AB1C9021DD5216CD9B963690168277E90
:100FE00002689B01C1F3014143EA0143C2F302716C
:100FF00043EA076242EA0171016029686FF0FF036A
:1010000000E04BE0A26A21F4F85103EB0222114305
:1010100029602168890212D5E16F51450FD1238CD7
:101020006269016807689201C1F3036142EA034201
:1010300042EA0162C7F3027142EA0171016021785C
:10104000090716D561690268D0F800C08B01277FB7
:10105000C2F30362CCF3014143EA014141EA026178
:1010600041EA077101602868E16A20F440300843D2
:101070002860306840F080503060FFF7B3FC0446D1
:1010800008E000BFFFF7AEFC001B642802D9032074
:10109000BDE8F88F3068C0438000F3D40020F7E744
:1010A000883802402DE9F04705000F4663D0444ED2
:1010B000306800F00F00B84209D2306820F00F000D
:1010C00038433060306800F00F00B84253D12868D0
:1010D0003C4C810712D5400703D5206840F4E0500E
:1010E00020602878000703D5206840F46040206025
:1010F000A968206820F0F000084320602878C00725
:101100002AD0304968680839012810D009680228B7
:1011100010D0890700292EDA216821F0030101434C
:101120002160FFF75FFC804641F288390DE00968D5
:101130008903EFE78901EDE7FFF754FCA0EB080115
:10114000494502D90320BDE8F0876868216801F0AD
:101150000C01B1EB800FEFD1306800F00F00B84206
:101160000BD9306820F00F0038433060306800F051
:101170000F00B84201D00120E5E72878400705D5E7
:10118000E968206820F4E0500843206028780007D0
:1011900006D52869216821F4604141EAC000206039
:1011A00000F038F82168084AC1F30311515CC840C7
:1011B0000649086006480068FFF72EFC0020C2E7D9
:1011C000003C024008380240F82B000814000020C0
:1011D0000C0000200449054809680068044AC1F36E
:1011E0008221515CC840704708380240140000203A
:1011F000082C00080449054809680068044AC1F33E
:101200004231515CC8407047083802401400002049
:10121000082C0008154910B51548096811F00C0292
:1012200013D04110042A0FD0082A0ED10F4C241FCE
:101230002268236802F03F025B0207D52068C0F3F2
:101240008810A0FB010106E0084610BD2168C1F32B
:101250008811A1FB00010023FEF7EAFF2168C1F31A
:101260000141491C4900B0FBF1F010BD08380240B3
:101270000024F4002DE9F84F04004FF000076ED071
:101280002078DFF87CA3AAF10408C007A8F10405C0
:101290004CD0DAF800105046C1F38101012908D082
:1012A0000068C0F3810002280AD1D8F8000040028B
:1012B00006D52868800339D560680028DFD035E07E
:1012C0006068B0F5803F0BD010B1B0F5A02F11D001
:1012D000286820F480302860286820F4802002E00C
:1012E000286840F480302860606890B1FFF77AFB8E
:1012F00006460AE0286840F480202860F0E700BF36
:10130000FFF770FB801B642872D828688003F7D52C
:101310000CE0FFF767FB064605E000BFFFF762FB46
:10132000801B6428F0D828688003F7D420788007D1
:1013300042D5DAF80010504611F00C0F08D00068C2
:10134000C0F3810002280BD1D8F80000400207D476
:101350002868800718D5E068012800D114E04AE128
:10136000E0680028286817D040F001002860FFF7E7
:1013700039FB064605E000BFFFF734FB801B02285F
:10138000C2D828688007F7D52069296821F0F801BC
:1013900041EAC00028600FE020F001002860FFF75C
:1013A00021FB064605E000BFFFF71CFB801B02285F
:1013B0001ED828688007F7D42078000729D59048E0
:1013C00061696C3000298146016812D041F0010149
:1013D0000160FFF707FB064605E000BFFFF702FBD1
:1013E000801B022804D8D9F800008007F6D510E049
:1013F00089E021F001010160FFF7F4FA064604E0FC
:10140000FFF7F0FA801B02287DD8D9F8000080078A
:10141000F6D4207840076BD5DFF8E49109F138095C
:10142000D9F80000C0000BD4D9F8001041F0805169
:10143000C9F80010D9F80000012700F08050009092
:1014400070480168C90512D40168834641F480716F
:101450000160FFF7C7FA064605E000BFFFF7C2FAD2
:10146000801B64284FD8DBF80000C005F6D5644E19
:10147000A068683601280AD008B1052811D0306864
:1014800020F001003060306820F0040002E0306895
:1014900040F001003060A068A0B1FFF7A3FA8346D6
:1014A0000CE0306840F004003060F0E7FFF79AFA93
:1014B000A0EB0B0141F28830814268D83068800788
:1014C000F4D50EE0FFF78EFA834607E0FFF78AFABD
:1014D000A0EB0B0141F28830814258D83068800778
:1014E000F4D42FB1D9F8001021F08051C9F80010C0
:1014F000A069E0B3DAF80010C1F3810102294DD0F0
:101500000228286800E042E020F08070286003D0C4
:10151000FFF768FA04463DE0FFF764FA064604E088
:10152000FFF760FA801B022831D828688001F7D4C1
:10153000D4E90921DFF8D0C0D4E9070694F83030A7
:101540004F0894F82C1030430CEB074444EA821205
:10155000104340EA016040EA0370C8F800002868C0
:1015600040F080702860FFF73DFA044605E044E053
:10157000FFF738FA001B022809D828688001F7D540
:101580003BE000BFFFF72EFA001B022802D9032020
:10159000BDE8F88F28688001F4D42EE00128D8F83F
:1015A000000028D0E16900F480028A4223D1216A38
:1015B00000F03F028A421ED1626A47F6C0710140C4
:1015C000B1EB821F17D1A16A4FF0FF3200F4403314
:1015D00002EB5101B3EB014F0DD194F82C1000F048
:1015E0007062B2EB016F06D194F8301000F0E04069
:1015F000B0EB017F01D00120CAE70020C8E700005E
:1016000008380240007000400000FFFF401EB0F1AB
:10161000807F10B501D3012010BD4FF0E024606140
:101620000F21601700F0ACFD0020A06107212161AF
:1016300010BD0000F0B590F83C20012A3BD01F4EB1
:10164000012480F83C40022280F83D2002681C4DB5
:101650005368B242D2F808C001D0AA4203D14F6801
:1016600023F470033B430F6823F070031F4357605C
:101670000268B24213D0B2F1804F10D0114B9A429F
:101680000DD0114B9A420AD0104B9A4207D0AA4271
:1016900005D00F4B9A4202D00E4B9A4204D1896872
:1016A0002CF0800319439160002180F83D4080F8C0
:1016B0003C100846F0BD0220F0BD000000000140D3
:1016C000000401400004004000080040000C0040FD
:1016D000004001400018004010B5040003D094F809
:1016E0003D0010B107E0012010BD002084F83C004F
:1016F000204600F023F8022084F83D002068211DD8
:1017000000F0C8FA012084F8480084F83E0084F80C
:101710003F0084F8400084F8410084F8420084F8D7
:10172000430084F8440084F8450084F8460084F8B7
:10173000470084F83D00002010BD000008B5006897
:101740000649884208D10648016841F0100101604D
:10175000006800F01000009008BD0000001000407C
:101760004038024010B5040002D0A06F10B107E06D
:10177000012010BD002084F87400204600F026F8F7
:101780002420A0672068016821F001010160204643
:1017900000F078FB0128ECD0606A10B1204600F020
:1017A000DFFA2068416821F4904141602068816837
:1017B00021F02A0181602068016841F00101016087
:1017C0002046BDE8104000F02FBB000010B586B0E9
:1017D000044614216846FEF763FD124920688842DA
:1017E0001ED11148016841F480210160006800F4B5
:1017F000802005900C481038016841F00801016014
:1018000000680221002200F008000590032307244D
:101810004FF440708DE81F0004486946FEF7ECFF66
:1018200006B010BD0048004040380240000C0240A5
:101830002DE9F8430446806F1F4616460D462028C2
:1018400050D1CDB1C6B194F8740001284AD001201E
:1018500084F8740021224FF00008C4F88080A26749
:10186000FFF7C0F88146A068A4F85060A4F8526061
:10187000B0F5805F03D004E00120BDE8F883206963
:1018800028B12E465FF0000584F8748010E0002631
:10189000FAE78021204600F00FFCB8B9C6B116F86F
:1018A000010B21688862B4F85200401EA4F852006F
:1018B000B4F852004B464FF0000200970028E8D1E0
:1018C0004FF04001204600F0F7FB38B10320D4E789
:1018D00035F8020B2168C0F30800E3E72020A06779
:1018E0000020CAE70220C8E7FEE700002DE9F04F1C
:1018F00087B014216846FEF7D3FC5548016841F0D3
:1019000004010160016801F004010591016841F0E2
:1019100080010160016801F080010591016841F0DA
:1019200001010160016801F001010591016841F0C8
:1019300002010160016801F002010591016841F0B6
:1019400008010160016801F008010591016841F09A
:101950004001016000680022DFF8F8B0812100F04A
:10196000400005905846FFF738F83B4800224021D8
:10197000FFF733F800243949DFF8E4804FF40059C9
:10198000CDF80090CDE9011469464046FEF734FFDA
:1019900002256946322002AACDE900050326404609
:1019A0000B2782E8D000FEF727FF8620DFF8B4A0DF
:1019B00002AA6946CDE90005504682E8D000FEF74C
:1019C0001BFF81204FF0010800906946CDE901849A
:1019D00058460394FEF710FF02AA6946584682E86B
:1019E000D000CDE90095FEF707FF40210091CDE939
:1019F0000184194869460394FEF7FEFE802069467B
:101A0000CDE9000414480294FEF7F6FE4FF4E850C6
:101A100000900A206946CDE90360CDE901545046A3
:101A2000FEF7EAFE28026946CDE90004504602941A
:101A3000FEF7E2FE4FF42050694602AACDE9000508
:101A4000054882E8D000FEF7D7FE07B0BDE8F08F6A
:101A5000303802400004024000180240000011101B
:101A6000000802400000024000B585B0142168461D
:101A7000FEF716FC002101224FF480408DE807009C
:101A800002486946FEF7B8FE05B000BD00040240FA
:101A900030B585B014216846FEF702FC0122094DDD
:101AA000940328462146FEF798FF01210220CDE944
:101AB0000041CDE9021069462846FEF79DFE05B0BB
:101AC00030BD0000000402403EB5104800244CF236
:101AD0004F320D4D6B23009401948021029481615B
:101AE000C0E90242C0E90053FFF7F6FD08B1FEF776
:101AF00070FE0648694600940294FFF79BFD00289B
:101B000001D0FEF766FE3EBD001000401C00002024
:101B10000D48002110B50B4C0C224FF4E13304604A
:101B2000C0E90131C160C0E904128161C161016293
:101B30004162FFF717FE002803D0BDE81040FEF712
:101B400048BE10BD0048004068000020FEE7704716
:101B5000024800224FF48041FEF73FBF00040240DC
:101B6000704700002DE9F05FDFF86CA000204FF413
:101B7000804905464FF0010BC84640065746060E01
:101B8000002441463846FEF723FF0028F9D0C1461D
:101B9000B8464F4649464046FEF71AFF01280BD08B
:101BA000B946474649463846FEF712FF0128F9D0A4
:101BB000052C09D9584608E0641C0A20E4B200F05C
:101BC00059FF062CE5D3EBE700206D1C3043EDB246
:101BD000082DD1D3BDE8F09F000402407047FEF706
:101BE00007BF000030B5B7B0342124A8FEF758FB7A
:101BF000142131A8FEF754FB90216846FEF750FBF4
:101C0000FEF7AAFF1D48016841F08051016000689D
:101C100000F0805036901A48016841F4404101605C
:101C200000680224D82500F44040369004200121A9
:101C300003058203CDE92C05CDE92A43CDE92E40E9
:101C4000CDE9241224A8FFF715FBFEF74FFFE202AF
:101C50004FF4A0510025CDE9341231AA0F200721FD
:101C600082E8310031A8FFF71DFAE00113950090DA
:101C70006846FEF779FF37B030BD000040380240BB
:101C8000007000400248016841F470010160704733
:101C900088ED00E0F0B5274B4FF0804E264D0268EE
:101CA0009842264E264F274C09D0704507D0A842AF
:101CB00005D0B04203D0B84201D0A04205D1D1F83E
:101CC00004C022F070024CEA020298421BD0704518
:101CD00019D0A84217D0B04215D0B84213D0A042B4
:101CE00011D0194DA8420ED0184DA8420BD0184D56
:101CF000A84208D0174DA84205D0174DA84202D0DF
:101D0000164DA84203D1CD6822F440722A434D6992
:101D100022F080022A43026098428A68C2620A68FE
:101D2000826201D0A04201D10969016301214161B0
:101D3000F0BD000000000140000400400008004029
:101D4000000C0040000401400040014000440140FC
:101D50000048014000180040001C004000200040E6
:101D600090F82410C90706D00168836A4A6822F4F3
:101D700000321A434A6090F82410890706D501689A
:101D8000C36A4A6822F480321A434A6090F82410E9
:101D9000490706D50168036B4A6822F480221A437A
:101DA0004A6090F82410090706D50168436B4A6819
:101DB00022F400421A434A6090F82410C90606D55E
:101DC0000168836B8A6822F480521A438A6090F813
:101DD0002410890606D50168C36B8A6822F4005274
:101DE0001A438A6090F82410490611D50168036CE3
:101DF0004A6822F480121A434A60016CB1F5801FD0
:101E000006D10168436C4A6822F4C0021A434A6052
:101E100090F82410090606D50168826C486820F401
:101E20000020104348607047F8B500260446C0F80B
:101E30008060FEF7D7FD054620686FF07E4700689A
:101E4000000708D500222B464FF4001120460097CA
:101E500000F032F960B92068006840070AD5002216
:101E60002B464FF480012046009700F025F908B179
:101E70000320F8BD2020A067E0672666002084F8D4
:101E80007460F8BD2DE9F04104460368C2698168B9
:101E9000D4E90450DFF8F4C17D4E29431F680025C2
:101EA00010437C4A014307EA0C070F431F604FF4BD
:101EB00000402168E7684B6823F440533B434B6084
:101EC0002768A369216AD7F808C019432CF4306346
:101ED0000B43BB602168B1420AD1116811F00301C4
:101EE00052D001297CD0022971D003296ED184E01F
:101EF000694B99420AD1116811F00C0167D004298D
:101F000065D0082975D00C2960D176E0634B9942E1
:101F10000AD1116811F0300159D010296BD0202955
:101F200067D0302952D168E05D4B99420AD11168DF
:101F300011F0C0014BD040295DD0802959D0C02973
:101F400044D15AE0574B99420DD1116811F44071B8
:101F50003DD0B1F5807F4ED0B1F5007F49D0B1F5CD
:101F6000407F33D149E0504B99420FD1116811F4B1
:101F7000406109D0B1F5806F3DD0B1F5006F38D028
:101F8000B1F5406F22D138E0012120E0474B994262
:101F90000DD1116811F4405119D0B1F5805F2AD0EC
:101FA000B1F5005F25D0B1F5405F0FD125E0404B82
:101FB00099420BD1116811F4404108D0B1F5804F1E
:101FC00019D0814215D0B1F5404F16D01021E369E8
:101FD000384A4FF6EF7683422FD109294BD201E0E0
:101FE00009E006E0DFE801F00B0E11471347474711
:101FF00016000221EBE70421E9E70821E7E7FFF7F4
:10200000E9F806E0FFF7F6F803E0104602E0FFF714
:1020100001F988B36168400000EB5100B0FBF1F0BA
:1020200080B2A0F11001B14225D84FF6F0732168BB
:10203000C0F342021840104320E009291BD2DFE818
:1020400001F005080B1A0D1A1A1A1000FFF7C2F852
:1020500006E0FFF7CFF803E0104602E0FFF7DAF8FA
:1020600050B1616800EB5100B0FBF1F080B2A0F11B
:102070001001B14201D9012501E02168C8600020AA
:102080006066A0662846BDE8F0810000F369FFEFB6
:1020900000100140903802400044004000480040D9
:1020A000004C004000500040001401400078004007
:1020B000007C00400024F4002DE9F0479A461746C2
:1020C0000E460446089D4FF000094FF0200839E005
:1020D000681C37D0FEF786FCA0EB0A00A84222D885
:1020E0000DB32068016849072CD5C069C0430005BD
:1020F00028D423684FF40061196221680B6823F427
:10210000D0730B6021688B6823F001038B60C4F8E7
:102110007880C4F87C80C4F8808000BF032084F8F5
:102120007490BDE8F08721680B6823F4D0730B60CE
:1021300021688B6823F001038B60C4F87880C4F8B1
:102140007C80EBE72068C06936EA000004D00020FC
:10215000B842BDD00020E4E70120F9E7FEE7000027
:102160000FB4054B10B503A9044A029800F0EAF831
:1021700010BC5DF814FB0000B12A00081800002014
:10218000090700284FEA116104DB00F1E02080F824
:102190000014704700F00F0000F1E02080F8141DDB
:1021A000704702E008C8121F08C1002AFAD1704720
:1021B0007047002001E001C1121F002AFBD17047C7
:1021C0002DE9FF5F82B00021DDE90430020DDDF86A
:1021D00040B0034318D044F61050A2F2FF324243FD
:1021E0001514119801281FD0A5EB0B00401C5FEAC5
:1021F000000A4FF000064E4FDFF83891B0465046C7
:1022000015D5CAF1000413E0119801244AA301284E
:1022100001D16FEA0B010298119AC0E90031C0E9BF
:10222000024206B0BDE8F09FCBF10000DFE70446B4
:102230000021404A491842EB0450CDE9001012E059
:10224000E00707D032463B4640464946FEF70FF9C5
:102250008046894632463B4610461946FEF707F946
:1022600006460F466410002CEAD1DDE90401DDE9E1
:102270000023BAF1000F06DAFEF7F9F842464B46A2
:10228000FEF7F5F805E0FEF764F942464B46FEF727
:1022900060F904460E460022284BFEF7E1F903D808
:1022A0004FF0FF30014607E00022254B2046314623
:1022B000FEF736F8FEF7BCF9102409E0002C0ADB23
:1022C0000A220023FDF7B4FF039B30321A55641E27
:1022D00050EA0102F2D1641C039AC4F111031444C0
:1022E000119A012A03D0012208430DD10AE00843C4
:1022F00004D000204FF0110B119072E7A3EB0B05F7
:102300006D1E0DE05B4504DD4FF0000205F1010597
:1023100004E003DA4FF00002A5F10105002AECD039
:1023200002981199C0E90231C0E9004579E700003F
:10233000000014400000F03F300000000000F043B7
:102340000000E03F2DE9FF4F95B09B4689460646C9
:1023500000250FE2252877D100242746F84A0121DD
:10236000059400E0044316F8013F203B01FA03F016
:102370001042F7D130782A2811D06FF02F0330782F
:10238000A0F13002092A16D8059A44F0020402EBA3
:10239000820203EB42021044761C0590EFE759F8E5
:1023A000042B0592002A03DA504244F400540590AD
:1023B00044F00204761C30782E2816D116F8010F4E
:1023C00044F004042A280DD06FF02F023078A0F1D9
:1023D0003003092B09D807EB870302EB4303C71827
:1023E000761CF3E759F8047B761C30786C280FD004
:1023F00006DC4C2817D068280DD06A2814D104E0D8
:10240000742810D07A280FD10DE044F400140AE0AB
:1024100044F4801401E044F440147278824202D102
:1024200004F58014761C761C307866280BD013DCFB
:10243000582877D009DC002875D04528F6D04628E2
:10244000F4D047281AD19DE118E0632835D06428DC
:1024500079D0652812D195E1702873D008DC6728FF
:10246000F1D069286FD06E280DD06F2806D1B5E065
:1024700073282CD0752875D0782874D05A461799AF
:1024800090476D1C75E1C4F30250022809D003285F
:102490000DD0D9F8001004280DD00D6009F1040901
:1024A00067E1D9F80010EA17C1E90052F6E7D9F858
:1024B00000100D80F2E70D70F0E719F8041B8DF89D
:1024C000001000208DF80100EA46012003E059F8D1
:1024D00004AB4FF0FF3061074FF0000102D40DE074
:1024E00008F101018846B9420FDA8045F8DB1AF895
:1024F00008100029F4D108E008F101018846814262
:10250000FADB1AF808100029F6D105985B46A0EB13
:10251000080721463846179A00F094FA284400EB41
:10252000080507E04DE029E10DE01AF8010B5A46D5
:1025300017999047B8F10108F7D25B462146384613
:10254000179A13E142E00A220092C4F302524FF0BC
:10255000000A022A08D059F804CB032A4FEAEC718A
:102560000AD00DE029E02AE009F1070121F0070275
:10257000F2E802C1914609E00FFA8CFC4FEAEC71D7
:10258000042A03D14FFA8CFC4FEAEC71002907DAD8
:102590000A460021DCF1000C61EB02012D2202E071
:1025A000220504D52B228DF80420012203E0E20746
:1025B00001D02022F7E7904659E00A2102E01022DC
:1025C0000DE010214FF0000A00910BE010224FF0B7
:1025D000000A44F004040827009203E008224FF0A8
:1025E000000A0092C4F30252022A05D059F804CB23
:1025F0000021032A08D009E009F1070121F00702B0
:10260000F2E802C1914605E01FFA8CFC042A01D1D0
:102610000CF0FF0C4FF00008220728D5702806D0D8
:10262000009B83F0100353EA0A0305D00EE040221A
:102630008DF80420012208E05CEA010206D0302275
:102640008DF804208DF8050002229046009B83F04F
:10265000080353EA0A030AD15CEA010201D16207C6
:1026600005D530228DF804204FF001087F1E582830
:1026700004D034A003900EA802900DE036A0F9E734
:1026800053466046009AFDF7D3FD84460398825C6A
:102690000298401E029002705CEA0100F0D102989C
:1026A00006A9081A00F1200A600702D524F4803434
:1026B00000E00127574502DDA7EB0A0000E00020FB
:1026C00000EB0A01009005984144401A0590E00390
:1026D00006D45B462146179A059800F0B3F90544E5
:1026E000002706E001A85A46C05D179990476D1C67
:1026F0007F1C4745F6DBE0030CD55B462146179A65
:10270000059800F09FF9054404E030205A461799D7
:1027100090476D1C0099481E00900029F5DC08E0E8
:10272000029802995A460078491C029117999047DD
:102730006D1CBAF10001AAF1010AF1DC65E10000AB
:102740000928010030313233343536373839616287
:10275000636465660000000030313233343536374B
:1027600038394142434445460000000000F058F922
:102770000544761C307800287FF4ECAD19B028466B
:10278000BDE8F08F620700D4062709F1070222F0A6
:10279000070CFCE80223E14603F000485FEA080C5E
:1027A00002D00FF2702C0DE05FEA045C02D50FF24C
:1027B000682C07E05FEAC47C02D00FF2602C01E0D5
:1027C000AFF2700C4FF0FF3823F00043CDF850C04B
:1027D00065280CD006DC452809D046281DD047289E
:1027E0003DD13DE0662818D067287ED138E0002131
:1027F000112F01DB112000E0781CCDE9000106A9B2
:102800000EA8FFF7DDFCDDE90F010E9A0391002110
:10281000009207F1010A04914DE04FF0004000974B
:10282000CDE9011006A90EA8FFF7CAFCDDE90F02E9
:1028300003920E9B11990022DDF80CA000930492E4
:1028400011B9791C00EB010AB7EB0A0004D4C0F1FE
:10285000FF3007F1010A0490AAEB0700019044E061
:10286000012F00DA01270021112F01DD112000E0E6
:102870003846CDE9000106A90EA8FFF7A1FCDDE965
:102880000F010E9A0391002104910092BA4621078C
:102890000CD40399514500DA8A46BAF1010F05DDDF
:1028A000009AAAF10101515C302908D0B84202DA3D
:1028B00010F1040F06DA0121CDE9011015E0AAF1AB
:1028C0000101E9E7002805DC049901440491AAEB21
:1028D000000102E0411C514500DD8A460499401A7E
:1028E000401C01904FF000400290200704D4019852
:1028F000504501DBCDF8048000208DF84F00029890
:102900000DF14F07B0F1004F25D02B200E9002980B
:102910004FF0020800280CDA404202902D200E9061
:1029200007E00A210298FDF7C6FC3031029007F853
:10293000011DB8F10001A8F10108F2DC029800289D
:10294000EFD1791E0E980870307800F0200040F02A
:10295000450007F8020D12A8C01B00F107081498E3
:10296000007800B1012000EB0A01019801EBE07151
:1029700005984144401A401E0590E00306D45B468A
:102980002146179A059800F05DF8054414980078E0
:1029900018B15A46179990476D1CE00324D55B4641
:1029A0002146179A059800F04DF805441CE004985C
:1029B000002807DBDDE90301884203DD0098405C65
:1029C000179901E0179930205A469047049805F16D
:1029D0000105401C04900198401E019004D12E2056
:1029E0005A46179990476D1CBAF10001AAF1010AE5
:1029F000DDDC05E017F8010B5A46179990476D1C6E
:102A0000B8F10001A8F10108F4DC5B462146179AF1
:102A10000598ABE62D0000002B0000002000000010
:102A20002DE9F041044600251E461746880404D4CB
:102A300005E039462020B0476D1C641EF9D52846B4
:102A4000BDE8F0812DE9F041044600251E46904680
:102A5000C80301D5302700E02027880404D505E00D
:102A600041463846B0476D1C641EF9D52846BDE87E
:102A7000F08100000D4900220B685A620A68136851
:102A800043F00103136009684A6A8242FCD3086A72
:102A900041F21112104207D1086A9210104203D17C
:102AA000086820F001000860704700001C0000204A
:102AB00013B507480A2301226946FEF7B9FE044808
:102AC0000068C169C9430906FBD400201CBD000091
:102AD000680000202DED028BFDF792FFFFF782F8D2
:102AE000FEF704FFFFF714F8FEF7EEFFFEF7D0FF46
:102AF0001548FFF735FB4FF4FA60FDF76BFE134CFA
:102B00004FF47A759FED128B00F032F8A8B10F48A0
:102B1000FDF740FE88B1A278E07800EE102A01EEC1
:102B2000100A21780CA0B8EE400BB8EE411B01EE64
:102B3000080B53EC102BFFF713FBFEF7A9FF2846F9
:102B4000FDF748FEE0E70000102C00080000002020
:102B50009A9999999999B93FCAAAB6C83D2025640E
:102B600020CEC2B6C8203D20252E31660A000000C6
:102B70002DE9F0410025FEF78BFFFEF7E9FF142059
:102B8000FDF728FEFEF770FF1A4C4FF4804606E072
:102B90006D1C0120EDB2FFF76DFF642D1ED831468C
:102BA0002046FDF715FF0128F2D0002506E06D1C38
:102BB0000120EDB2FFF75EFF642D0FD831462746A6
:102BC0002046FDF705FF0028F1D0002409E0641C31
:102BD0000120E4B2FFF74EFF642C02D90020BDE8CB
:102BE000F08131463846FDF7F3FE0128EFD0012091
:102BF000F5E70000000402400000000000000000B3
:102C00000102030406070809000000000102030492
:102C1000444854313120C9CFB5E7BAF3A3A844489A
:102C200054313120C9CFB5E7BAF3D2AAB5C8B4FD43
:102C3000203153D2D4C9CFD2D4D4BDB9FDB2BBCE8A
:102C4000C8B6A8D7B4CCACD4DAB4CBC6DABCE4B23C
:102C5000BBC4DCB7A2CBCDC8CEBACED6B8C1EEA32A
:102C6000A92CD6AEBAF3D4D9B7A2D6B8C1EE0A0011
:102C7000902C0008000000201C000000A221000889
:102C8000AC2C00081C000020D4040000B221000875
:102C90000000000000000000010000001000000023
:0C2CA000000000000024F4000000000010
:04000005080001F9F5
:00000001FF
